{
  "address": "0x5FbDB2315678afecb367f032d93F642f64180aa3",
  "abi": [
    {
      "inputs": [],
      "stateMutability": "nonpayable",
      "type": "constructor"
    },
    {
      "anonymous": false,
      "inputs": [
        {
          "indexed": true,
          "internalType": "address",
          "name": "owner",
          "type": "address"
        },
        {
          "indexed": true,
          "internalType": "address",
          "name": "approved",
          "type": "address"
        },
        {
          "indexed": true,
          "internalType": "uint256",
          "name": "tokenId",
          "type": "uint256"
        }
      ],
      "name": "Approval",
      "type": "event"
    },
    {
      "anonymous": false,
      "inputs": [
        {
          "indexed": true,
          "internalType": "address",
          "name": "owner",
          "type": "address"
        },
        {
          "indexed": true,
          "internalType": "address",
          "name": "operator",
          "type": "address"
        },
        {
          "indexed": false,
          "internalType": "bool",
          "name": "approved",
          "type": "bool"
        }
      ],
      "name": "ApprovalForAll",
      "type": "event"
    },
    {
      "anonymous": false,
      "inputs": [
        {
          "indexed": false,
          "internalType": "address",
          "name": "owner",
          "type": "address"
        },
        {
          "indexed": false,
          "internalType": "uint256",
          "name": "createdTime",
          "type": "uint256"
        },
        {
          "indexed": false,
          "internalType": "uint256",
          "name": "startTime",
          "type": "uint256"
        },
        {
          "indexed": false,
          "internalType": "uint256",
          "name": "endTime",
          "type": "uint256"
        },
        {
          "indexed": false,
          "internalType": "string",
          "name": "id",
          "type": "string"
        }
      ],
      "name": "EventCreated",
      "type": "event"
    },
    {
      "anonymous": false,
      "inputs": [
        {
          "indexed": false,
          "internalType": "uint256",
          "name": "id",
          "type": "uint256"
        }
      ],
      "name": "EventDeleted",
      "type": "event"
    },
    {
      "anonymous": false,
      "inputs": [
        {
          "indexed": false,
          "internalType": "uint256",
          "name": "id",
          "type": "uint256"
        },
        {
          "indexed": false,
          "internalType": "uint256",
          "name": "startTime",
          "type": "uint256"
        },
        {
          "indexed": false,
          "internalType": "uint256",
          "name": "endTime",
          "type": "uint256"
        }
      ],
      "name": "EventUpdated",
      "type": "event"
    },
    {
      "anonymous": false,
      "inputs": [
        {
          "indexed": true,
          "internalType": "uint256",
          "name": "tokenId",
          "type": "uint256"
        },
        {
          "indexed": false,
          "internalType": "address",
          "name": "seller",
          "type": "address"
        },
        {
          "indexed": false,
          "internalType": "address",
          "name": "owner",
          "type": "address"
        },
        {
          "indexed": false,
          "internalType": "uint256",
          "name": "price",
          "type": "uint256"
        },
        {
          "indexed": false,
          "internalType": "bool",
          "name": "sold",
          "type": "bool"
        }
      ],
      "name": "MarketItemCreated",
      "type": "event"
    },
    {
      "anonymous": false,
      "inputs": [
        {
          "indexed": true,
          "internalType": "address",
          "name": "previousOwner",
          "type": "address"
        },
        {
          "indexed": true,
          "internalType": "address",
          "name": "newOwner",
          "type": "address"
        }
      ],
      "name": "OwnershipTransferred",
      "type": "event"
    },
    {
      "anonymous": false,
      "inputs": [
        {
          "indexed": false,
          "internalType": "uint256",
          "name": "tokenId",
          "type": "uint256"
        },
        {
          "indexed": false,
          "internalType": "uint256",
          "name": "ticketTypeId",
          "type": "uint256"
        }
      ],
      "name": "TicketSold",
      "type": "event"
    },
    {
      "anonymous": false,
      "inputs": [
        {
          "indexed": false,
          "internalType": "uint256",
          "name": "eventId",
          "type": "uint256"
        },
        {
          "indexed": false,
          "internalType": "uint256",
          "name": "createdTime",
          "type": "uint256"
        },
        {
          "indexed": false,
          "internalType": "string",
          "name": "id",
          "type": "string"
        },
        {
          "indexed": false,
          "internalType": "uint256",
          "name": "price",
          "type": "uint256"
        },
        {
          "indexed": false,
          "internalType": "uint256",
          "name": "startSellingTime",
          "type": "uint256"
        },
        {
          "indexed": false,
          "internalType": "uint256",
          "name": "endSellingTime",
          "type": "uint256"
        },
        {
          "indexed": false,
          "internalType": "int256",
          "name": "limit",
          "type": "int256"
        }
      ],
      "name": "TicketTypeCreated",
      "type": "event"
    },
    {
      "anonymous": false,
      "inputs": [
        {
          "indexed": true,
          "internalType": "address",
          "name": "from",
          "type": "address"
        },
        {
          "indexed": true,
          "internalType": "address",
          "name": "to",
          "type": "address"
        },
        {
          "indexed": true,
          "internalType": "uint256",
          "name": "tokenId",
          "type": "uint256"
        }
      ],
      "name": "Transfer",
      "type": "event"
    },
    {
      "inputs": [
        {
          "internalType": "address",
          "name": "to",
          "type": "address"
        },
        {
          "internalType": "uint256",
          "name": "tokenId",
          "type": "uint256"
        }
      ],
      "name": "approve",
      "outputs": [],
      "stateMutability": "nonpayable",
      "type": "function"
    },
    {
      "inputs": [
        {
          "internalType": "address",
          "name": "owner",
          "type": "address"
        }
      ],
      "name": "balanceOf",
      "outputs": [
        {
          "internalType": "uint256",
          "name": "",
          "type": "uint256"
        }
      ],
      "stateMutability": "view",
      "type": "function"
    },
    {
      "inputs": [
        {
          "internalType": "uint256",
          "name": "startTime",
          "type": "uint256"
        },
        {
          "internalType": "uint256",
          "name": "endTime",
          "type": "uint256"
        },
        {
          "internalType": "string",
          "name": "id",
          "type": "string"
        }
      ],
      "name": "createEvent",
      "outputs": [],
      "stateMutability": "nonpayable",
      "type": "function"
    },
    {
      "inputs": [
        {
          "internalType": "uint256",
          "name": "tokenId",
          "type": "uint256"
        }
      ],
      "name": "createMarketSale",
      "outputs": [],
      "stateMutability": "payable",
      "type": "function"
    },
    {
      "inputs": [
        {
          "internalType": "uint256",
          "name": "eventId",
          "type": "uint256"
        },
        {
          "internalType": "string",
          "name": "id",
          "type": "string"
        },
        {
          "internalType": "uint256",
          "name": "price",
          "type": "uint256"
        },
        {
          "internalType": "uint256",
          "name": "startSellingTime",
          "type": "uint256"
        },
        {
          "internalType": "uint256",
          "name": "endSellingTime",
          "type": "uint256"
        },
        {
          "internalType": "int256",
          "name": "limit",
          "type": "int256"
        }
      ],
      "name": "createTicketType",
      "outputs": [],
      "stateMutability": "nonpayable",
      "type": "function"
    },
    {
      "inputs": [],
      "name": "createToken",
      "outputs": [
        {
          "internalType": "uint256",
          "name": "",
          "type": "uint256"
        }
      ],
      "stateMutability": "nonpayable",
      "type": "function"
    },
    {
      "inputs": [],
      "name": "fetchItemsListed",
      "outputs": [
        {
          "components": [
            {
              "internalType": "uint256",
              "name": "tokenId",
              "type": "uint256"
            },
            {
              "internalType": "address payable",
              "name": "seller",
              "type": "address"
            },
            {
              "internalType": "address payable",
              "name": "owner",
              "type": "address"
            },
            {
              "internalType": "uint256",
              "name": "price",
              "type": "uint256"
            },
            {
              "internalType": "bool",
              "name": "sold",
              "type": "bool"
            }
          ],
          "internalType": "struct NFTTicketMarketplace.MarketItem[]",
          "name": "",
          "type": "tuple[]"
        }
      ],
      "stateMutability": "view",
      "type": "function"
    },
    {
      "inputs": [],
      "name": "fetchMarketItems",
      "outputs": [
        {
          "components": [
            {
              "internalType": "uint256",
              "name": "tokenId",
              "type": "uint256"
            },
            {
              "internalType": "address payable",
              "name": "seller",
              "type": "address"
            },
            {
              "internalType": "address payable",
              "name": "owner",
              "type": "address"
            },
            {
              "internalType": "uint256",
              "name": "price",
              "type": "uint256"
            },
            {
              "internalType": "bool",
              "name": "sold",
              "type": "bool"
            }
          ],
          "internalType": "struct NFTTicketMarketplace.MarketItem[]",
          "name": "",
          "type": "tuple[]"
        }
      ],
      "stateMutability": "view",
      "type": "function"
    },
    {
      "inputs": [],
      "name": "fetchMyNFTs",
      "outputs": [
        {
          "components": [
            {
              "internalType": "uint256",
              "name": "tokenId",
              "type": "uint256"
            },
            {
              "internalType": "address payable",
              "name": "seller",
              "type": "address"
            },
            {
              "internalType": "address payable",
              "name": "owner",
              "type": "address"
            },
            {
              "internalType": "uint256",
              "name": "price",
              "type": "uint256"
            },
            {
              "internalType": "bool",
              "name": "sold",
              "type": "bool"
            }
          ],
          "internalType": "struct NFTTicketMarketplace.MarketItem[]",
          "name": "",
          "type": "tuple[]"
        }
      ],
      "stateMutability": "view",
      "type": "function"
    },
    {
      "inputs": [
        {
          "internalType": "uint256",
          "name": "tokenId",
          "type": "uint256"
        }
      ],
      "name": "getApproved",
      "outputs": [
        {
          "internalType": "address",
          "name": "",
          "type": "address"
        }
      ],
      "stateMutability": "view",
      "type": "function"
    },
    {
      "inputs": [],
      "name": "getListingPrice",
      "outputs": [
        {
          "internalType": "uint256",
          "name": "",
          "type": "uint256"
        }
      ],
      "stateMutability": "view",
      "type": "function"
    },
    {
      "inputs": [
        {
          "internalType": "address",
          "name": "owner",
          "type": "address"
        },
        {
          "internalType": "address",
          "name": "operator",
          "type": "address"
        }
      ],
      "name": "isApprovedForAll",
      "outputs": [
        {
          "internalType": "bool",
          "name": "",
          "type": "bool"
        }
      ],
      "stateMutability": "view",
      "type": "function"
    },
    {
      "inputs": [],
      "name": "name",
      "outputs": [
        {
          "internalType": "string",
          "name": "",
          "type": "string"
        }
      ],
      "stateMutability": "view",
      "type": "function"
    },
    {
      "inputs": [],
      "name": "owner",
      "outputs": [
        {
          "internalType": "address",
          "name": "",
          "type": "address"
        }
      ],
      "stateMutability": "view",
      "type": "function"
    },
    {
      "inputs": [
        {
          "internalType": "uint256",
          "name": "tokenId",
          "type": "uint256"
        }
      ],
      "name": "ownerOf",
      "outputs": [
        {
          "internalType": "address",
          "name": "",
          "type": "address"
        }
      ],
      "stateMutability": "view",
      "type": "function"
    },
    {
      "inputs": [
        {
          "internalType": "uint256",
          "name": "ticketTypeId",
          "type": "uint256"
        },
        {
          "internalType": "string",
          "name": "ticketId",
          "type": "string"
        }
      ],
      "name": "payForTicket",
      "outputs": [
        {
          "internalType": "uint256",
          "name": "",
          "type": "uint256"
        }
      ],
      "stateMutability": "payable",
      "type": "function"
    },
    {
      "inputs": [],
      "name": "renounceOwnership",
      "outputs": [],
      "stateMutability": "nonpayable",
      "type": "function"
    },
    {
      "inputs": [
        {
          "internalType": "uint256",
          "name": "tokenId",
          "type": "uint256"
        },
        {
          "internalType": "uint256",
          "name": "price",
          "type": "uint256"
        }
      ],
      "name": "resellToken",
      "outputs": [],
      "stateMutability": "payable",
      "type": "function"
    },
    {
      "inputs": [
        {
          "internalType": "address",
          "name": "from",
          "type": "address"
        },
        {
          "internalType": "address",
          "name": "to",
          "type": "address"
        },
        {
          "internalType": "uint256",
          "name": "tokenId",
          "type": "uint256"
        }
      ],
      "name": "safeTransferFrom",
      "outputs": [],
      "stateMutability": "nonpayable",
      "type": "function"
    },
    {
      "inputs": [
        {
          "internalType": "address",
          "name": "from",
          "type": "address"
        },
        {
          "internalType": "address",
          "name": "to",
          "type": "address"
        },
        {
          "internalType": "uint256",
          "name": "tokenId",
          "type": "uint256"
        },
        {
          "internalType": "bytes",
          "name": "_data",
          "type": "bytes"
        }
      ],
      "name": "safeTransferFrom",
      "outputs": [],
      "stateMutability": "nonpayable",
      "type": "function"
    },
    {
      "inputs": [
        {
          "internalType": "address",
          "name": "operator",
          "type": "address"
        },
        {
          "internalType": "bool",
          "name": "approved",
          "type": "bool"
        }
      ],
      "name": "setApprovalForAll",
      "outputs": [],
      "stateMutability": "nonpayable",
      "type": "function"
    },
    {
      "inputs": [
        {
          "internalType": "string",
          "name": "uri",
          "type": "string"
        }
      ],
      "name": "setBaseURI",
      "outputs": [],
      "stateMutability": "nonpayable",
      "type": "function"
    },
    {
      "inputs": [
        {
          "internalType": "bytes4",
          "name": "interfaceId",
          "type": "bytes4"
        }
      ],
      "name": "supportsInterface",
      "outputs": [
        {
          "internalType": "bool",
          "name": "",
          "type": "bool"
        }
      ],
      "stateMutability": "view",
      "type": "function"
    },
    {
      "inputs": [],
      "name": "symbol",
      "outputs": [
        {
          "internalType": "string",
          "name": "",
          "type": "string"
        }
      ],
      "stateMutability": "view",
      "type": "function"
    },
    {
      "inputs": [
        {
          "internalType": "uint256",
          "name": "tokenId",
          "type": "uint256"
        }
      ],
      "name": "tokenURI",
      "outputs": [
        {
          "internalType": "string",
          "name": "",
          "type": "string"
        }
      ],
      "stateMutability": "view",
      "type": "function"
    },
    {
      "inputs": [
        {
          "internalType": "address",
          "name": "from",
          "type": "address"
        },
        {
          "internalType": "address",
          "name": "to",
          "type": "address"
        },
        {
          "internalType": "uint256",
          "name": "tokenId",
          "type": "uint256"
        }
      ],
      "name": "transferFrom",
      "outputs": [],
      "stateMutability": "nonpayable",
      "type": "function"
    },
    {
      "inputs": [
        {
          "internalType": "address",
          "name": "newOwner",
          "type": "address"
        }
      ],
      "name": "transferOwnership",
      "outputs": [],
      "stateMutability": "nonpayable",
      "type": "function"
    },
    {
      "inputs": [
        {
          "internalType": "uint256",
          "name": "eventId",
          "type": "uint256"
        },
        {
          "internalType": "uint256",
          "name": "startTime",
          "type": "uint256"
        },
        {
          "internalType": "uint256",
          "name": "endTime",
          "type": "uint256"
        }
      ],
      "name": "updateEvent",
      "outputs": [],
      "stateMutability": "nonpayable",
      "type": "function"
    },
    {
      "inputs": [
        {
          "internalType": "uint256",
          "name": "_listingPrice",
          "type": "uint256"
        }
      ],
      "name": "updateListingPrice",
      "outputs": [],
      "stateMutability": "payable",
      "type": "function"
    }
  ],
  "transactionHash": "0xbc20a489ea7eaf6c66731f244b5c46aa43a12d9a71bde62a4075cc650df1eb84",
  "args": [],
  "numDeployments": 1,
  "solcInputHash": "57c5157b3967fe42f34e1517c1c48768",
  "bytecode": "0x608060405260405180606001604052806028815260200162005263602891396007908051906020019062000035929190620001e3565b506658d15e17628000600c553480156200004e57600080fd5b506040518060400160405280600d81526020017f5469636b657420546f6b656e73000000000000000000000000000000000000008152506040518060400160405280600481526020017f54434b54000000000000000000000000000000000000000000000000000000008152508160009080519060200190620000d3929190620001e3565b508060019080519060200190620000ec929190620001e3565b5050506200010f620001036200011560201b60201c565b6200011d60201b60201c565b620002f8565b600033905090565b6000600660009054906101000a900473ffffffffffffffffffffffffffffffffffffffff16905081600660006101000a81548173ffffffffffffffffffffffffffffffffffffffff021916908373ffffffffffffffffffffffffffffffffffffffff1602179055508173ffffffffffffffffffffffffffffffffffffffff168173ffffffffffffffffffffffffffffffffffffffff167f8be0079c531659141344cd1fd0a4f28419497f9722a3daafe3b4186f6b6457e060405160405180910390a35050565b828054620001f190620002c2565b90600052602060002090601f01602090048101928262000215576000855562000261565b82601f106200023057805160ff191683800117855562000261565b8280016001018555821562000261579182015b828111156200026057825182559160200191906001019062000243565b5b50905062000270919062000274565b5090565b5b808211156200028f57600081600090555060010162000275565b5090565b7f4e487b7100000000000000000000000000000000000000000000000000000000600052602260045260246000fd5b60006002820490506001821680620002db57607f821691505b60208210811415620002f257620002f162000293565b5b50919050565b614f5b80620003086000396000f3fe6080604052600436106101c25760003560e01c80636352211e116100f7578063ac35f8d111610095578063c87b56dd11610064578063c87b56dd14610603578063e219fc7514610640578063e985e9c51461065c578063f2fde38b14610699576101c2565b8063ac35f8d114610572578063ae677aa3146105a2578063b88d4fde146105be578063be9af536146105e7576101c2565b80638da5cb5b116100d15780638da5cb5b146104c857806395d89b41146104f35780639cbf9e361461051e578063a22cb46514610549576101c2565b80636352211e1461043757806370a0823114610474578063715018a6146104b1576101c2565b8063202e374011610164578063294e0d561161013e578063294e0d561461039157806342842e0e146103ba57806345f8fa80146103e357806355f804b31461040e576101c2565b8063202e37401461031457806323b872dd1461033f5780632529851014610368576101c2565b8063095ea7b3116101a0578063095ea7b31461026c5780630f08efe0146102955780630fbfe0e9146102c057806312e85585146102e9576101c2565b806301ffc9a7146101c757806306fdde0314610204578063081812fc1461022f575b600080fd5b3480156101d357600080fd5b506101ee60048036038101906101e991906132a3565b6106c2565b6040516101fb91906132eb565b60405180910390f35b34801561021057600080fd5b506102196107a4565b604051610226919061339f565b60405180910390f35b34801561023b57600080fd5b50610256600480360381019061025191906133f7565b610836565b6040516102639190613465565b60405180910390f35b34801561027857600080fd5b50610293600480360381019061028e91906134ac565b6108bb565b005b3480156102a157600080fd5b506102aa6109d3565b6040516102b79190613642565b60405180910390f35b3480156102cc57600080fd5b506102e760048036038101906102e291906137cf565b610c3c565b005b3480156102f557600080fd5b506102fe610daf565b60405161030b9190613887565b60405180910390f35b34801561032057600080fd5b50610329610db9565b6040516103369190613642565b60405180910390f35b34801561034b57600080fd5b50610366600480360381019061036191906138a2565b6110a7565b005b34801561037457600080fd5b5061038f600480360381019061038a91906138f5565b611107565b005b34801561039d57600080fd5b506103b860048036038101906103b39190613948565b6111e7565b005b3480156103c657600080fd5b506103e160048036038101906103dc91906138a2565b611342565b005b3480156103ef57600080fd5b506103f8611362565b6040516104059190613642565b60405180910390f35b34801561041a57600080fd5b50610435600480360381019061043091906139b7565b611650565b005b34801561044357600080fd5b5061045e600480360381019061045991906133f7565b6116e6565b60405161046b9190613465565b60405180910390f35b34801561048057600080fd5b5061049b60048036038101906104969190613a00565b611798565b6040516104a89190613887565b60405180910390f35b3480156104bd57600080fd5b506104c6611850565b005b3480156104d457600080fd5b506104dd6118d8565b6040516104ea9190613465565b60405180910390f35b3480156104ff57600080fd5b50610508611902565b604051610515919061339f565b60405180910390f35b34801561052a57600080fd5b50610533611994565b6040516105409190613887565b60405180910390f35b34801561055557600080fd5b50610570600480360381019061056b9190613a59565b6119bf565b005b61058c60048036038101906105879190613a99565b6119d5565b6040516105999190613887565b60405180910390f35b6105bc60048036038101906105b791906133f7565b611bf6565b005b3480156105ca57600080fd5b506105e560048036038101906105e09190613b96565b611c7c565b005b61060160048036038101906105fc91906133f7565b611cde565b005b34801561060f57600080fd5b5061062a600480360381019061062591906133f7565b611f01565b604051610637919061339f565b60405180910390f35b61065a60048036038101906106559190613c19565b611fa8565b005b34801561066857600080fd5b50610683600480360381019061067e9190613c59565b61219d565b60405161069091906132eb565b60405180910390f35b3480156106a557600080fd5b506106c060048036038101906106bb9190613a00565b612231565b005b60007f80ac58cd000000000000000000000000000000000000000000000000000000007bffffffffffffffffffffffffffffffffffffffffffffffffffffffff1916827bffffffffffffffffffffffffffffffffffffffffffffffffffffffff1916148061078d57507f5b5e139f000000000000000000000000000000000000000000000000000000007bffffffffffffffffffffffffffffffffffffffffffffffffffffffff1916827bffffffffffffffffffffffffffffffffffffffffffffffffffffffff1916145b8061079d575061079c82612329565b5b9050919050565b6060600080546107b390613cc8565b80601f01602080910402602001604051908101604052809291908181526020018280546107df90613cc8565b801561082c5780601f106108015761010080835404028352916020019161082c565b820191906000526020600020905b81548152906001019060200180831161080f57829003601f168201915b5050505050905090565b600061084182612393565b610880576040517f08c379a000000000000000000000000000000000000000000000000000000000815260040161087790613d6c565b60405180910390fd5b6004600083815260200190815260200160002060009054906101000a900473ffffffffffffffffffffffffffffffffffffffff169050919050565b60006108c6826116e6565b90508073ffffffffffffffffffffffffffffffffffffffff168373ffffffffffffffffffffffffffffffffffffffff161415610937576040517f08c379a000000000000000000000000000000000000000000000000000000000815260040161092e90613dfe565b60405180910390fd5b8073ffffffffffffffffffffffffffffffffffffffff166109566123ff565b73ffffffffffffffffffffffffffffffffffffffff16148061098557506109848161097f6123ff565b61219d565b5b6109c4576040517f08c379a00000000000000000000000000000000000000000000000000000000081526004016109bb90613e90565b60405180910390fd5b6109ce8383612407565b505050565b606060006109e160086124c0565b905060006109ef600b6124c0565b6109f960086124c0565b610a039190613edf565b90506000808267ffffffffffffffff811115610a2257610a2161366e565b5b604051908082528060200260200182016040528015610a5b57816020015b610a48613137565b815260200190600190039081610a405790505b50905060005b84811015610c31573073ffffffffffffffffffffffffffffffffffffffff16600d6000600184610a919190613f13565b815260200190815260200160002060020160009054906101000a900473ffffffffffffffffffffffffffffffffffffffff1673ffffffffffffffffffffffffffffffffffffffff161415610c1e576000600182610aee9190613f13565b90506000600d60008381526020019081526020016000209050806040518060a0016040529081600082015481526020016001820160009054906101000a900473ffffffffffffffffffffffffffffffffffffffff1673ffffffffffffffffffffffffffffffffffffffff1673ffffffffffffffffffffffffffffffffffffffff1681526020016002820160009054906101000a900473ffffffffffffffffffffffffffffffffffffffff1673ffffffffffffffffffffffffffffffffffffffff1673ffffffffffffffffffffffffffffffffffffffff168152602001600382015481526020016004820160009054906101000a900460ff161515151581525050848681518110610c0157610c00613f69565b5b6020026020010181905250600185610c199190613f13565b945050505b8080610c2990613f98565b915050610a61565b508094505050505090565b60008411610c7f576040517f08c379a0000000000000000000000000000000000000000000000000000000008152600401610c769061402d565b60405180910390fd5b610c89600a6124ce565b6000610c95600a6124c0565b905060405180610100016040528088815260200142815260200187815260200186815260200185815260200184815260200183815260200160011515815250600f600083815260200190815260200160002060008201518160000155602082015181600101556040820151816002019080519060200190610d17929190613194565b50606082015181600301556080820151816004015560a0820151816005015560c0820151816006015560e08201518160070160006101000a81548160ff0219169083151502179055509050507fe809bd3cccc88d7cf3521228b050ab9e1802aa8d1ea57a1f2cccedc3130e7ef187428888888888604051610d9e979695949392919061405c565b60405180910390a150505050505050565b6000600c54905090565b60606000610dc760086124c0565b905060008060005b83811015610e70573373ffffffffffffffffffffffffffffffffffffffff16600d6000600184610dff9190613f13565b815260200190815260200160002060020160009054906101000a900473ffffffffffffffffffffffffffffffffffffffff1673ffffffffffffffffffffffffffffffffffffffff161415610e5d57600183610e5a9190613f13565b92505b8080610e6890613f98565b915050610dcf565b5060008267ffffffffffffffff811115610e8d57610e8c61366e565b5b604051908082528060200260200182016040528015610ec657816020015b610eb3613137565b815260200190600190039081610eab5790505b50905060005b8481101561109c573373ffffffffffffffffffffffffffffffffffffffff16600d6000600184610efc9190613f13565b815260200190815260200160002060020160009054906101000a900473ffffffffffffffffffffffffffffffffffffffff1673ffffffffffffffffffffffffffffffffffffffff161415611089576000600182610f599190613f13565b90506000600d60008381526020019081526020016000209050806040518060a0016040529081600082015481526020016001820160009054906101000a900473ffffffffffffffffffffffffffffffffffffffff1673ffffffffffffffffffffffffffffffffffffffff1673ffffffffffffffffffffffffffffffffffffffff1681526020016002820160009054906101000a900473ffffffffffffffffffffffffffffffffffffffff1673ffffffffffffffffffffffffffffffffffffffff1673ffffffffffffffffffffffffffffffffffffffff168152602001600382015481526020016004820160009054906101000a900460ff16151515158152505084868151811061106c5761106b613f69565b5b60200260200101819052506001856110849190613f13565b945050505b808061109490613f98565b915050610ecc565b508094505050505090565b6110b86110b26123ff565b826124e4565b6110f7576040517f08c379a00000000000000000000000000000000000000000000000000000000081526004016110ee90614144565b60405180910390fd5b6111028383836125c2565b505050565b60011515600e600085815260200190815260200160002060050160009054906101000a900460ff16151514611171576040517f08c379a0000000000000000000000000000000000000000000000000000000008152600401611168906141b0565b60405180910390fd5b81600e60008581526020019081526020016000206002018190555080600e6000858152602001908152602001600020600201819055507f7068eff53d4130b0bc23272635506565df6c5b683e458708df42b5468245b7bd8383836040516111da939291906141d0565b60405180910390a1505050565b6111f160096124ce565b60006111fd60096124c0565b90506040518060c001604052803373ffffffffffffffffffffffffffffffffffffffff16815260200142815260200185815260200184815260200183815260200160011515815250600e600083815260200190815260200160002060008201518160000160006101000a81548173ffffffffffffffffffffffffffffffffffffffff021916908373ffffffffffffffffffffffffffffffffffffffff16021790555060208201518160010155604082015181600201556060820151816003015560808201518160040190805190602001906112d9929190613194565b5060a08201518160050160006101000a81548160ff0219169083151502179055509050507f5011d9cbda74ea3ce753f070403c2af7912ece302e58dc2e039d4e8d151b5b5a3342868686604051611334959493929190614207565b60405180910390a150505050565b61135d83838360405180602001604052806000815250611c7c565b505050565b6060600061137060086124c0565b905060008060005b83811015611419573373ffffffffffffffffffffffffffffffffffffffff16600d60006001846113a89190613f13565b815260200190815260200160002060010160009054906101000a900473ffffffffffffffffffffffffffffffffffffffff1673ffffffffffffffffffffffffffffffffffffffff161415611406576001836114039190613f13565b92505b808061141190613f98565b915050611378565b5060008267ffffffffffffffff8111156114365761143561366e565b5b60405190808252806020026020018201604052801561146f57816020015b61145c613137565b8152602001906001900390816114545790505b50905060005b84811015611645573373ffffffffffffffffffffffffffffffffffffffff16600d60006001846114a59190613f13565b815260200190815260200160002060010160009054906101000a900473ffffffffffffffffffffffffffffffffffffffff1673ffffffffffffffffffffffffffffffffffffffff1614156116325760006001826115029190613f13565b90506000600d60008381526020019081526020016000209050806040518060a0016040529081600082015481526020016001820160009054906101000a900473ffffffffffffffffffffffffffffffffffffffff1673ffffffffffffffffffffffffffffffffffffffff1673ffffffffffffffffffffffffffffffffffffffff1681526020016002820160009054906101000a900473ffffffffffffffffffffffffffffffffffffffff1673ffffffffffffffffffffffffffffffffffffffff1673ffffffffffffffffffffffffffffffffffffffff168152602001600382015481526020016004820160009054906101000a900460ff16151515158152505084868151811061161557611614613f69565b5b602002602001018190525060018561162d9190613f13565b945050505b808061163d90613f98565b915050611475565b508094505050505090565b6116586123ff565b73ffffffffffffffffffffffffffffffffffffffff166116766118d8565b73ffffffffffffffffffffffffffffffffffffffff16146116cc576040517f08c379a00000000000000000000000000000000000000000000000000000000081526004016116c3906142ad565b60405180910390fd5b80600790805190602001906116e2929190613194565b5050565b6000806002600084815260200190815260200160002060009054906101000a900473ffffffffffffffffffffffffffffffffffffffff169050600073ffffffffffffffffffffffffffffffffffffffff168173ffffffffffffffffffffffffffffffffffffffff16141561178f576040517f08c379a00000000000000000000000000000000000000000000000000000000081526004016117869061433f565b60405180910390fd5b80915050919050565b60008073ffffffffffffffffffffffffffffffffffffffff168273ffffffffffffffffffffffffffffffffffffffff161415611809576040517f08c379a0000000000000000000000000000000000000000000000000000000008152600401611800906143d1565b60405180910390fd5b600360008373ffffffffffffffffffffffffffffffffffffffff1673ffffffffffffffffffffffffffffffffffffffff168152602001908152602001600020549050919050565b6118586123ff565b73ffffffffffffffffffffffffffffffffffffffff166118766118d8565b73ffffffffffffffffffffffffffffffffffffffff16146118cc576040517f08c379a00000000000000000000000000000000000000000000000000000000081526004016118c3906142ad565b60405180910390fd5b6118d66000612829565b565b6000600660009054906101000a900473ffffffffffffffffffffffffffffffffffffffff16905090565b60606001805461191190613cc8565b80601f016020809104026020016040519081016040528092919081815260200182805461193d90613cc8565b801561198a5780601f1061195f5761010080835404028352916020019161198a565b820191906000526020600020905b81548152906001019060200180831161196d57829003601f168201915b5050505050905090565b60006119a060086124ce565b60006119ac60086124c0565b90506119b833826128ef565b8091505090565b6119d16119ca6123ff565b8383612ac9565b5050565b600080600f600085815260200190815260200160002090506000816003015411611a34576040517f08c379a0000000000000000000000000000000000000000000000000000000008152600401611a2b9061443d565b60405180910390fd5b34816003015414611a7a576040517f08c379a0000000000000000000000000000000000000000000000000000000008152600401611a71906144a9565b60405180910390fd5b428160040154108015611aa25750600f60008581526020019081526020016000206005015442105b611ae1576040517f08c379a0000000000000000000000000000000000000000000000000000000008152600401611ad890614515565b60405180910390fd5b7fffffffffffffffffffffffffffffffffffffffffffffffffffffffffffffffff81600601541480611b17575060008160060154135b611b56576040517f08c379a0000000000000000000000000000000000000000000000000000000008152600401611b4d90614581565b60405180910390fd5b7fffffffffffffffffffffffffffffffffffffffffffffffffffffffffffffffff816006015414611b9c57806006016000815480929190611b96906145a1565b91905055505b6000611ba6611994565b9050611bb28186612c36565b7fefeeb73320087a2a47bf61966e558f721b92abd63ce46882b16691e6ae9dee8c8186604051611be39291906145ea565b60405180910390a1809250505092915050565b611bfe6123ff565b73ffffffffffffffffffffffffffffffffffffffff16611c1c6118d8565b73ffffffffffffffffffffffffffffffffffffffff1614611c72576040517f08c379a0000000000000000000000000000000000000000000000000000000008152600401611c69906142ad565b60405180910390fd5b80600c8190555050565b611c8d611c876123ff565b836124e4565b611ccc576040517f08c379a0000000000000000000000000000000000000000000000000000000008152600401611cc390614144565b60405180910390fd5b611cd884848484612cc8565b50505050565b6000600d60008381526020019081526020016000206003015490506000600d600084815260200190815260200160002060010160009054906101000a900473ffffffffffffffffffffffffffffffffffffffff169050813414611d76576040517f08c379a0000000000000000000000000000000000000000000000000000000008152600401611d6d90614685565b60405180910390fd5b33600d600085815260200190815260200160002060020160006101000a81548173ffffffffffffffffffffffffffffffffffffffff021916908373ffffffffffffffffffffffffffffffffffffffff1602179055506001600d600085815260200190815260200160002060040160006101000a81548160ff0219169083151502179055506000600d600085815260200190815260200160002060010160006101000a81548173ffffffffffffffffffffffffffffffffffffffff021916908373ffffffffffffffffffffffffffffffffffffffff160217905550611e5a600b6124ce565b611e653033856125c2565b611e6d6118d8565b73ffffffffffffffffffffffffffffffffffffffff166108fc600c549081150290604051600060405180830381858888f19350505050158015611eb4573d6000803e3d6000fd5b508073ffffffffffffffffffffffffffffffffffffffff166108fc349081150290604051600060405180830381858888f19350505050158015611efb573d6000803e3d6000fd5b50505050565b6060611f0c82612393565b611f4b576040517f08c379a0000000000000000000000000000000000000000000000000000000008152600401611f4290614717565b60405180910390fd5b6000611f55612d24565b90506000815111611f755760405180602001604052806000815250611fa0565b80611f7f84612db6565b604051602001611f90929190614773565b6040516020818303038152906040525b915050919050565b3373ffffffffffffffffffffffffffffffffffffffff16600d600084815260200190815260200160002060020160009054906101000a900473ffffffffffffffffffffffffffffffffffffffff1673ffffffffffffffffffffffffffffffffffffffff161461204c576040517f08c379a000000000000000000000000000000000000000000000000000000000815260040161204390614809565b60405180910390fd5b600c543414612090576040517f08c379a00000000000000000000000000000000000000000000000000000000081526004016120879061489b565b60405180910390fd5b6000600d600084815260200190815260200160002060040160006101000a81548160ff02191690831515021790555080600d60008481526020019081526020016000206003018190555033600d600084815260200190815260200160002060010160006101000a81548173ffffffffffffffffffffffffffffffffffffffff021916908373ffffffffffffffffffffffffffffffffffffffff16021790555030600d600084815260200190815260200160002060020160006101000a81548173ffffffffffffffffffffffffffffffffffffffff021916908373ffffffffffffffffffffffffffffffffffffffff16021790555061218e600b612f17565b6121993330846125c2565b5050565b6000600560008473ffffffffffffffffffffffffffffffffffffffff1673ffffffffffffffffffffffffffffffffffffffff16815260200190815260200160002060008373ffffffffffffffffffffffffffffffffffffffff1673ffffffffffffffffffffffffffffffffffffffff16815260200190815260200160002060009054906101000a900460ff16905092915050565b6122396123ff565b73ffffffffffffffffffffffffffffffffffffffff166122576118d8565b73ffffffffffffffffffffffffffffffffffffffff16146122ad576040517f08c379a00000000000000000000000000000000000000000000000000000000081526004016122a4906142ad565b60405180910390fd5b600073ffffffffffffffffffffffffffffffffffffffff168173ffffffffffffffffffffffffffffffffffffffff16141561231d576040517f08c379a00000000000000000000000000000000000000000000000000000000081526004016123149061492d565b60405180910390fd5b61232681612829565b50565b60007f01ffc9a7000000000000000000000000000000000000000000000000000000007bffffffffffffffffffffffffffffffffffffffffffffffffffffffff1916827bffffffffffffffffffffffffffffffffffffffffffffffffffffffff1916149050919050565b60008073ffffffffffffffffffffffffffffffffffffffff166002600084815260200190815260200160002060009054906101000a900473ffffffffffffffffffffffffffffffffffffffff1673ffffffffffffffffffffffffffffffffffffffff1614159050919050565b600033905090565b816004600083815260200190815260200160002060006101000a81548173ffffffffffffffffffffffffffffffffffffffff021916908373ffffffffffffffffffffffffffffffffffffffff160217905550808273ffffffffffffffffffffffffffffffffffffffff1661247a836116e6565b73ffffffffffffffffffffffffffffffffffffffff167f8c5be1e5ebec7d5bd14f71427d1e84f3dd0314c0f7b2291e5b200ac8c7c3b92560405160405180910390a45050565b600081600001549050919050565b6001816000016000828254019250508190555050565b60006124ef82612393565b61252e576040517f08c379a0000000000000000000000000000000000000000000000000000000008152600401612525906149bf565b60405180910390fd5b6000612539836116e6565b90508073ffffffffffffffffffffffffffffffffffffffff168473ffffffffffffffffffffffffffffffffffffffff16148061257b575061257a818561219d565b5b806125b957508373ffffffffffffffffffffffffffffffffffffffff166125a184610836565b73ffffffffffffffffffffffffffffffffffffffff16145b91505092915050565b8273ffffffffffffffffffffffffffffffffffffffff166125e2826116e6565b73ffffffffffffffffffffffffffffffffffffffff1614612638576040517f08c379a000000000000000000000000000000000000000000000000000000000815260040161262f90614a51565b60405180910390fd5b600073ffffffffffffffffffffffffffffffffffffffff168273ffffffffffffffffffffffffffffffffffffffff1614156126a8576040517f08c379a000000000000000000000000000000000000000000000000000000000815260040161269f90614ae3565b60405180910390fd5b6126b3838383612f73565b6126be600082612407565b6001600360008573ffffffffffffffffffffffffffffffffffffffff1673ffffffffffffffffffffffffffffffffffffffff168152602001908152602001600020600082825461270e9190613edf565b925050819055506001600360008473ffffffffffffffffffffffffffffffffffffffff1673ffffffffffffffffffffffffffffffffffffffff16815260200190815260200160002060008282546127659190613f13565b92505081905550816002600083815260200190815260200160002060006101000a81548173ffffffffffffffffffffffffffffffffffffffff021916908373ffffffffffffffffffffffffffffffffffffffff160217905550808273ffffffffffffffffffffffffffffffffffffffff168473ffffffffffffffffffffffffffffffffffffffff167fddf252ad1be2c89b69c2b068fc378daa952ba7f163c4a11628f55a4df523b3ef60405160405180910390a4612824838383612f78565b505050565b6000600660009054906101000a900473ffffffffffffffffffffffffffffffffffffffff16905081600660006101000a81548173ffffffffffffffffffffffffffffffffffffffff021916908373ffffffffffffffffffffffffffffffffffffffff1602179055508173ffffffffffffffffffffffffffffffffffffffff168173ffffffffffffffffffffffffffffffffffffffff167f8be0079c531659141344cd1fd0a4f28419497f9722a3daafe3b4186f6b6457e060405160405180910390a35050565b600073ffffffffffffffffffffffffffffffffffffffff168273ffffffffffffffffffffffffffffffffffffffff16141561295f576040517f08c379a000000000000000000000000000000000000000000000000000000000815260040161295690614b4f565b60405180910390fd5b61296881612393565b156129a8576040517f08c379a000000000000000000000000000000000000000000000000000000000815260040161299f90614bbb565b60405180910390fd5b6129b460008383612f73565b6001600360008473ffffffffffffffffffffffffffffffffffffffff1673ffffffffffffffffffffffffffffffffffffffff1681526020019081526020016000206000828254612a049190613f13565b92505081905550816002600083815260200190815260200160002060006101000a81548173ffffffffffffffffffffffffffffffffffffffff021916908373ffffffffffffffffffffffffffffffffffffffff160217905550808273ffffffffffffffffffffffffffffffffffffffff16600073ffffffffffffffffffffffffffffffffffffffff167fddf252ad1be2c89b69c2b068fc378daa952ba7f163c4a11628f55a4df523b3ef60405160405180910390a4612ac560008383612f78565b5050565b8173ffffffffffffffffffffffffffffffffffffffff168373ffffffffffffffffffffffffffffffffffffffff161415612b38576040517f08c379a0000000000000000000000000000000000000000000000000000000008152600401612b2f90614c27565b60405180910390fd5b80600560008573ffffffffffffffffffffffffffffffffffffffff1673ffffffffffffffffffffffffffffffffffffffff16815260200190815260200160002060008473ffffffffffffffffffffffffffffffffffffffff1673ffffffffffffffffffffffffffffffffffffffff16815260200190815260200160002060006101000a81548160ff0219169083151502179055508173ffffffffffffffffffffffffffffffffffffffff168373ffffffffffffffffffffffffffffffffffffffff167f17307eab39ab6107e8899845ad3d59bd9653f200f220920489ca2b5937696c3183604051612c2991906132eb565b60405180910390a3505050565b612c3f826116e6565b73ffffffffffffffffffffffffffffffffffffffff163373ffffffffffffffffffffffffffffffffffffffff1614612cac576040517f08c379a0000000000000000000000000000000000000000000000000000000008152600401612ca390614c93565b60405180910390fd5b8060106000848152602001908152602001600020819055505050565b612cd38484846125c2565b612cdf84848484612f7d565b612d1e576040517f08c379a0000000000000000000000000000000000000000000000000000000008152600401612d1590614d25565b60405180910390fd5b50505050565b606060078054612d3390613cc8565b80601f0160208091040260200160405190810160405280929190818152602001828054612d5f90613cc8565b8015612dac5780601f10612d8157610100808354040283529160200191612dac565b820191906000526020600020905b815481529060010190602001808311612d8f57829003601f168201915b5050505050905090565b60606000821415612dfe576040518060400160405280600181526020017f30000000000000000000000000000000000000000000000000000000000000008152509050612f12565b600082905060005b60008214612e30578080612e1990613f98565b915050600a82612e299190614d74565b9150612e06565b60008167ffffffffffffffff811115612e4c57612e4b61366e565b5b6040519080825280601f01601f191660200182016040528015612e7e5781602001600182028036833780820191505090505b5090505b60008514612f0b57600182612e979190613edf565b9150600a85612ea69190614da5565b6030612eb29190613f13565b60f81b818381518110612ec857612ec7613f69565b5b60200101907effffffffffffffffffffffffffffffffffffffffffffffffffffffffffffff1916908160001a905350600a85612f049190614d74565b9450612e82565b8093505050505b919050565b60008160000154905060008111612f63576040517f08c379a0000000000000000000000000000000000000000000000000000000008152600401612f5a90614e22565b60405180910390fd5b6001810382600001819055505050565b505050565b505050565b6000612f9e8473ffffffffffffffffffffffffffffffffffffffff16613114565b15613107578373ffffffffffffffffffffffffffffffffffffffff1663150b7a02612fc76123ff565b8786866040518563ffffffff1660e01b8152600401612fe99493929190614e97565b602060405180830381600087803b15801561300357600080fd5b505af192505050801561303457506040513d601f19601f820116820180604052508101906130319190614ef8565b60015b6130b7573d8060008114613064576040519150601f19603f3d011682016040523d82523d6000602084013e613069565b606091505b506000815114156130af576040517f08c379a00000000000000000000000000000000000000000000000000000000081526004016130a690614d25565b60405180910390fd5b805181602001fd5b63150b7a0260e01b7bffffffffffffffffffffffffffffffffffffffffffffffffffffffff1916817bffffffffffffffffffffffffffffffffffffffffffffffffffffffff19161491505061310c565b600190505b949350505050565b6000808273ffffffffffffffffffffffffffffffffffffffff163b119050919050565b6040518060a0016040528060008152602001600073ffffffffffffffffffffffffffffffffffffffff168152602001600073ffffffffffffffffffffffffffffffffffffffff168152602001600081526020016000151581525090565b8280546131a090613cc8565b90600052602060002090601f0160209004810192826131c25760008555613209565b82601f106131db57805160ff1916838001178555613209565b82800160010185558215613209579182015b828111156132085782518255916020019190600101906131ed565b5b509050613216919061321a565b5090565b5b8082111561323357600081600090555060010161321b565b5090565b6000604051905090565b600080fd5b600080fd5b60007fffffffff0000000000000000000000000000000000000000000000000000000082169050919050565b6132808161324b565b811461328b57600080fd5b50565b60008135905061329d81613277565b92915050565b6000602082840312156132b9576132b8613241565b5b60006132c78482850161328e565b91505092915050565b60008115159050919050565b6132e5816132d0565b82525050565b600060208201905061330060008301846132dc565b92915050565b600081519050919050565b600082825260208201905092915050565b60005b83811015613340578082015181840152602081019050613325565b8381111561334f576000848401525b50505050565b6000601f19601f8301169050919050565b600061337182613306565b61337b8185613311565b935061338b818560208601613322565b61339481613355565b840191505092915050565b600060208201905081810360008301526133b98184613366565b905092915050565b6000819050919050565b6133d4816133c1565b81146133df57600080fd5b50565b6000813590506133f1816133cb565b92915050565b60006020828403121561340d5761340c613241565b5b600061341b848285016133e2565b91505092915050565b600073ffffffffffffffffffffffffffffffffffffffff82169050919050565b600061344f82613424565b9050919050565b61345f81613444565b82525050565b600060208201905061347a6000830184613456565b92915050565b61348981613444565b811461349457600080fd5b50565b6000813590506134a681613480565b92915050565b600080604083850312156134c3576134c2613241565b5b60006134d185828601613497565b92505060206134e2858286016133e2565b9150509250929050565b600081519050919050565b600082825260208201905092915050565b6000819050602082019050919050565b613521816133c1565b82525050565b600061353282613424565b9050919050565b61354281613527565b82525050565b613551816132d0565b82525050565b60a08201600082015161356d6000850182613518565b5060208201516135806020850182613539565b5060408201516135936040850182613539565b5060608201516135a66060850182613518565b5060808201516135b96080850182613548565b50505050565b60006135cb8383613557565b60a08301905092915050565b6000602082019050919050565b60006135ef826134ec565b6135f981856134f7565b935061360483613508565b8060005b8381101561363557815161361c88826135bf565b9750613627836135d7565b925050600181019050613608565b5085935050505092915050565b6000602082019050818103600083015261365c81846135e4565b905092915050565b600080fd5b600080fd5b7f4e487b7100000000000000000000000000000000000000000000000000000000600052604160045260246000fd5b6136a682613355565b810181811067ffffffffffffffff821117156136c5576136c461366e565b5b80604052505050565b60006136d8613237565b90506136e4828261369d565b919050565b600067ffffffffffffffff8211156137045761370361366e565b5b61370d82613355565b9050602081019050919050565b82818337600083830152505050565b600061373c613737846136e9565b6136ce565b90508281526020810184848401111561375857613757613669565b5b61376384828561371a565b509392505050565b600082601f8301126137805761377f613664565b5b8135613790848260208601613729565b91505092915050565b6000819050919050565b6137ac81613799565b81146137b757600080fd5b50565b6000813590506137c9816137a3565b92915050565b60008060008060008060c087890312156137ec576137eb613241565b5b60006137fa89828a016133e2565b965050602087013567ffffffffffffffff81111561381b5761381a613246565b5b61382789828a0161376b565b955050604061383889828a016133e2565b945050606061384989828a016133e2565b935050608061385a89828a016133e2565b92505060a061386b89828a016137ba565b9150509295509295509295565b613881816133c1565b82525050565b600060208201905061389c6000830184613878565b92915050565b6000806000606084860312156138bb576138ba613241565b5b60006138c986828701613497565b93505060206138da86828701613497565b92505060406138eb868287016133e2565b9150509250925092565b60008060006060848603121561390e5761390d613241565b5b600061391c868287016133e2565b935050602061392d868287016133e2565b925050604061393e868287016133e2565b9150509250925092565b60008060006060848603121561396157613960613241565b5b600061396f868287016133e2565b9350506020613980868287016133e2565b925050604084013567ffffffffffffffff8111156139a1576139a0613246565b5b6139ad8682870161376b565b9150509250925092565b6000602082840312156139cd576139cc613241565b5b600082013567ffffffffffffffff8111156139eb576139ea613246565b5b6139f78482850161376b565b91505092915050565b600060208284031215613a1657613a15613241565b5b6000613a2484828501613497565b91505092915050565b613a36816132d0565b8114613a4157600080fd5b50565b600081359050613a5381613a2d565b92915050565b60008060408385031215613a7057613a6f613241565b5b6000613a7e85828601613497565b9250506020613a8f85828601613a44565b9150509250929050565b60008060408385031215613ab057613aaf613241565b5b6000613abe858286016133e2565b925050602083013567ffffffffffffffff811115613adf57613ade613246565b5b613aeb8582860161376b565b9150509250929050565b600067ffffffffffffffff821115613b1057613b0f61366e565b5b613b1982613355565b9050602081019050919050565b6000613b39613b3484613af5565b6136ce565b905082815260208101848484011115613b5557613b54613669565b5b613b6084828561371a565b509392505050565b600082601f830112613b7d57613b7c613664565b5b8135613b8d848260208601613b26565b91505092915050565b60008060008060808587031215613bb057613baf613241565b5b6000613bbe87828801613497565b9450506020613bcf87828801613497565b9350506040613be0878288016133e2565b925050606085013567ffffffffffffffff811115613c0157613c00613246565b5b613c0d87828801613b68565b91505092959194509250565b60008060408385031215613c3057613c2f613241565b5b6000613c3e858286016133e2565b9250506020613c4f858286016133e2565b9150509250929050565b60008060408385031215613c7057613c6f613241565b5b6000613c7e85828601613497565b9250506020613c8f85828601613497565b9150509250929050565b7f4e487b7100000000000000000000000000000000000000000000000000000000600052602260045260246000fd5b60006002820490506001821680613ce057607f821691505b60208210811415613cf457613cf3613c99565b5b50919050565b7f4552433732313a20617070726f76656420717565727920666f72206e6f6e657860008201527f697374656e7420746f6b656e0000000000000000000000000000000000000000602082015250565b6000613d56602c83613311565b9150613d6182613cfa565b604082019050919050565b60006020820190508181036000830152613d8581613d49565b9050919050565b7f4552433732313a20617070726f76616c20746f2063757272656e74206f776e6560008201527f7200000000000000000000000000000000000000000000000000000000000000602082015250565b6000613de8602183613311565b9150613df382613d8c565b604082019050919050565b60006020820190508181036000830152613e1781613ddb565b9050919050565b7f4552433732313a20617070726f76652063616c6c6572206973206e6f74206f7760008201527f6e6572206e6f7220617070726f76656420666f7220616c6c0000000000000000602082015250565b6000613e7a603883613311565b9150613e8582613e1e565b604082019050919050565b60006020820190508181036000830152613ea981613e6d565b9050919050565b7f4e487b7100000000000000000000000000000000000000000000000000000000600052601160045260246000fd5b6000613eea826133c1565b9150613ef5836133c1565b925082821015613f0857613f07613eb0565b5b828203905092915050565b6000613f1e826133c1565b9150613f29836133c1565b9250827fffffffffffffffffffffffffffffffffffffffffffffffffffffffffffffffff03821115613f5e57613f5d613eb0565b5b828201905092915050565b7f4e487b7100000000000000000000000000000000000000000000000000000000600052603260045260246000fd5b6000613fa3826133c1565b91507fffffffffffffffffffffffffffffffffffffffffffffffffffffffffffffffff821415613fd657613fd5613eb0565b5b600182019050919050565b7f5072696365206d757374206265206174206c6561737420312077656900000000600082015250565b6000614017601c83613311565b915061402282613fe1565b602082019050919050565b600060208201905081810360008301526140468161400a565b9050919050565b61405681613799565b82525050565b600060e082019050614071600083018a613878565b61407e6020830189613878565b81810360408301526140908188613366565b905061409f6060830187613878565b6140ac6080830186613878565b6140b960a0830185613878565b6140c660c083018461404d565b98975050505050505050565b7f4552433732313a207472616e736665722063616c6c6572206973206e6f74206f60008201527f776e6572206e6f7220617070726f766564000000000000000000000000000000602082015250565b600061412e603183613311565b9150614139826140d2565b604082019050919050565b6000602082019050818103600083015261415d81614121565b9050919050565b7f4e6f742065786973747300000000000000000000000000000000000000000000600082015250565b600061419a600a83613311565b91506141a582614164565b602082019050919050565b600060208201905081810360008301526141c98161418d565b9050919050565b60006060820190506141e56000830186613878565b6141f26020830185613878565b6141ff6040830184613878565b949350505050565b600060a08201905061421c6000830188613456565b6142296020830187613878565b6142366040830186613878565b6142436060830185613878565b81810360808301526142558184613366565b90509695505050505050565b7f4f776e61626c653a2063616c6c6572206973206e6f7420746865206f776e6572600082015250565b6000614297602083613311565b91506142a282614261565b602082019050919050565b600060208201905081810360008301526142c68161428a565b9050919050565b7f4552433732313a206f776e657220717565727920666f72206e6f6e657869737460008201527f656e7420746f6b656e0000000000000000000000000000000000000000000000602082015250565b6000614329602983613311565b9150614334826142cd565b604082019050919050565b600060208201905081810360008301526143588161431c565b9050919050565b7f4552433732313a2062616c616e636520717565727920666f7220746865207a6560008201527f726f206164647265737300000000000000000000000000000000000000000000602082015250565b60006143bb602a83613311565b91506143c68261435f565b604082019050919050565b600060208201905081810360008301526143ea816143ae565b9050919050565b7f5469636b65742074797065206e6f742065787369740000000000000000000000600082015250565b6000614427601583613311565b9150614432826143f1565b602082019050919050565b600060208201905081810360008301526144568161441a565b9050919050565b7f4e6f7420636f727265637420616d6f756e74206f66206d6f6e65790000000000600082015250565b6000614493601b83613311565b915061449e8261445d565b602082019050919050565b600060208201905081810360008301526144c281614486565b9050919050565b7f4e6f7420696e2073656c6c696e672074696d6500000000000000000000000000600082015250565b60006144ff601383613311565b915061450a826144c9565b602082019050919050565b6000602082019050818103600083015261452e816144f2565b9050919050565b7f4e6f207469636b6574206c656674000000000000000000000000000000000000600082015250565b600061456b600e83613311565b915061457682614535565b602082019050919050565b6000602082019050818103600083015261459a8161455e565b9050919050565b60006145ac82613799565b91507f80000000000000000000000000000000000000000000000000000000000000008214156145df576145de613eb0565b5b600182039050919050565b60006040820190506145ff6000830185613878565b61460c6020830184613878565b9392505050565b7f506c65617365207375626d6974207468652061736b696e67207072696365206960008201527f6e206f7264657220746f20636f6d706c65746520746865207075726368617365602082015250565b600061466f604083613311565b915061467a82614613565b604082019050919050565b6000602082019050818103600083015261469e81614662565b9050919050565b7f4552433732314d657461646174613a2055524920717565727920666f72206e6f60008201527f6e6578697374656e7420746f6b656e0000000000000000000000000000000000602082015250565b6000614701602f83613311565b915061470c826146a5565b604082019050919050565b60006020820190508181036000830152614730816146f4565b9050919050565b600081905092915050565b600061474d82613306565b6147578185614737565b9350614767818560208601613322565b80840191505092915050565b600061477f8285614742565b915061478b8284614742565b91508190509392505050565b7f4f6e6c79206974656d206f776e65722063616e20706572666f726d207468697360008201527f206f7065726174696f6e00000000000000000000000000000000000000000000602082015250565b60006147f3602a83613311565b91506147fe82614797565b604082019050919050565b60006020820190508181036000830152614822816147e6565b9050919050565b7f5072696365206d75737420626520657175616c20746f206c697374696e67207060008201527f7269636500000000000000000000000000000000000000000000000000000000602082015250565b6000614885602483613311565b915061489082614829565b604082019050919050565b600060208201905081810360008301526148b481614878565b9050919050565b7f4f776e61626c653a206e6577206f776e657220697320746865207a65726f206160008201527f6464726573730000000000000000000000000000000000000000000000000000602082015250565b6000614917602683613311565b9150614922826148bb565b604082019050919050565b600060208201905081810360008301526149468161490a565b9050919050565b7f4552433732313a206f70657261746f7220717565727920666f72206e6f6e657860008201527f697374656e7420746f6b656e0000000000000000000000000000000000000000602082015250565b60006149a9602c83613311565b91506149b48261494d565b604082019050919050565b600060208201905081810360008301526149d88161499c565b9050919050565b7f4552433732313a207472616e736665722066726f6d20696e636f72726563742060008201527f6f776e6572000000000000000000000000000000000000000000000000000000602082015250565b6000614a3b602583613311565b9150614a46826149df565b604082019050919050565b60006020820190508181036000830152614a6a81614a2e565b9050919050565b7f4552433732313a207472616e7366657220746f20746865207a65726f2061646460008201527f7265737300000000000000000000000000000000000000000000000000000000602082015250565b6000614acd602483613311565b9150614ad882614a71565b604082019050919050565b60006020820190508181036000830152614afc81614ac0565b9050919050565b7f4552433732313a206d696e7420746f20746865207a65726f2061646472657373600082015250565b6000614b39602083613311565b9150614b4482614b03565b602082019050919050565b60006020820190508181036000830152614b6881614b2c565b9050919050565b7f4552433732313a20746f6b656e20616c7265616479206d696e74656400000000600082015250565b6000614ba5601c83613311565b9150614bb082614b6f565b602082019050919050565b60006020820190508181036000830152614bd481614b98565b9050919050565b7f4552433732313a20617070726f766520746f2063616c6c657200000000000000600082015250565b6000614c11601983613311565b9150614c1c82614bdb565b602082019050919050565b60006020820190508181036000830152614c4081614c04565b9050919050565b7f4861766520746f206265206f6e776572206f6620746f6b656e00000000000000600082015250565b6000614c7d601983613311565b9150614c8882614c47565b602082019050919050565b60006020820190508181036000830152614cac81614c70565b9050919050565b7f4552433732313a207472616e7366657220746f206e6f6e20455243373231526560008201527f63656976657220696d706c656d656e7465720000000000000000000000000000602082015250565b6000614d0f603283613311565b9150614d1a82614cb3565b604082019050919050565b60006020820190508181036000830152614d3e81614d02565b9050919050565b7f4e487b7100000000000000000000000000000000000000000000000000000000600052601260045260246000fd5b6000614d7f826133c1565b9150614d8a836133c1565b925082614d9a57614d99614d45565b5b828204905092915050565b6000614db0826133c1565b9150614dbb836133c1565b925082614dcb57614dca614d45565b5b828206905092915050565b7f436f756e7465723a2064656372656d656e74206f766572666c6f770000000000600082015250565b6000614e0c601b83613311565b9150614e1782614dd6565b602082019050919050565b60006020820190508181036000830152614e3b81614dff565b9050919050565b600081519050919050565b600082825260208201905092915050565b6000614e6982614e42565b614e738185614e4d565b9350614e83818560208601613322565b614e8c81613355565b840191505092915050565b6000608082019050614eac6000830187613456565b614eb96020830186613456565b614ec66040830185613878565b8181036060830152614ed88184614e5e565b905095945050505050565b600081519050614ef281613277565b92915050565b600060208284031215614f0e57614f0d613241565b5b6000614f1c84828501614ee3565b9150509291505056fea2646970667358221220925414953ca0c26a2ddc13d30f80a6b75a1dbbf7473640d72f32899704651fb364736f6c63430008080033687474703a2f2f6c6f63616c686f73743a353030302f6576656e742d7469636b65742f646174612f",
  "devdoc": {
    "kind": "dev",
    "methods": {
      "approve(address,uint256)": {
        "details": "See {IERC721-approve}."
      },
      "balanceOf(address)": {
        "details": "See {IERC721-balanceOf}."
      },
      "getApproved(uint256)": {
        "details": "See {IERC721-getApproved}."
      },
      "isApprovedForAll(address,address)": {
        "details": "See {IERC721-isApprovedForAll}."
      },
      "name()": {
        "details": "See {IERC721Metadata-name}."
      },
      "owner()": {
        "details": "Returns the address of the current owner."
      },
      "ownerOf(uint256)": {
        "details": "See {IERC721-ownerOf}."
      },
      "renounceOwnership()": {
        "details": "Leaves the contract without owner. It will not be possible to call `onlyOwner` functions anymore. Can only be called by the current owner. NOTE: Renouncing ownership will leave the contract without an owner, thereby removing any functionality that is only available to the owner."
      },
      "safeTransferFrom(address,address,uint256)": {
        "details": "See {IERC721-safeTransferFrom}."
      },
      "safeTransferFrom(address,address,uint256,bytes)": {
        "details": "See {IERC721-safeTransferFrom}."
      },
      "setApprovalForAll(address,bool)": {
        "details": "See {IERC721-setApprovalForAll}."
      },
      "supportsInterface(bytes4)": {
        "details": "See {IERC165-supportsInterface}."
      },
      "symbol()": {
        "details": "See {IERC721Metadata-symbol}."
      },
      "tokenURI(uint256)": {
        "details": "See {IERC721Metadata-tokenURI}."
      },
      "transferFrom(address,address,uint256)": {
        "details": "See {IERC721-transferFrom}."
      },
      "transferOwnership(address)": {
        "details": "Transfers ownership of the contract to a new account (`newOwner`). Can only be called by the current owner."
      }
    },
    "version": 1
  },
  "userdoc": {
    "kind": "user",
    "methods": {},
    "version": 1
  },
  "storageLayout": {
    "storage": [
      {
        "astId": 130,
        "contract": "contracts/NFTTicketMarketplace.sol:NFTTicketMarketplace",
        "label": "_name",
        "offset": 0,
        "slot": "0",
        "type": "t_string_storage"
      },
      {
        "astId": 132,
        "contract": "contracts/NFTTicketMarketplace.sol:NFTTicketMarketplace",
        "label": "_symbol",
        "offset": 0,
        "slot": "1",
        "type": "t_string_storage"
      },
      {
        "astId": 136,
        "contract": "contracts/NFTTicketMarketplace.sol:NFTTicketMarketplace",
        "label": "_owners",
        "offset": 0,
        "slot": "2",
        "type": "t_mapping(t_uint256,t_address)"
      },
      {
        "astId": 140,
        "contract": "contracts/NFTTicketMarketplace.sol:NFTTicketMarketplace",
        "label": "_balances",
        "offset": 0,
        "slot": "3",
        "type": "t_mapping(t_address,t_uint256)"
      },
      {
        "astId": 144,
        "contract": "contracts/NFTTicketMarketplace.sol:NFTTicketMarketplace",
        "label": "_tokenApprovals",
        "offset": 0,
        "slot": "4",
        "type": "t_mapping(t_uint256,t_address)"
      },
      {
        "astId": 150,
        "contract": "contracts/NFTTicketMarketplace.sol:NFTTicketMarketplace",
        "label": "_operatorApprovals",
        "offset": 0,
        "slot": "5",
        "type": "t_mapping(t_address,t_mapping(t_address,t_bool))"
      },
      {
        "astId": 7,
        "contract": "contracts/NFTTicketMarketplace.sol:NFTTicketMarketplace",
        "label": "_owner",
        "offset": 0,
        "slot": "6",
        "type": "t_address"
      },
      {
        "astId": 1902,
        "contract": "contracts/NFTTicketMarketplace.sol:NFTTicketMarketplace",
        "label": "baseURI",
        "offset": 0,
        "slot": "7",
        "type": "t_string_storage"
      },
      {
        "astId": 2006,
        "contract": "contracts/NFTTicketMarketplace.sol:NFTTicketMarketplace",
        "label": "_tokenIds",
        "offset": 0,
        "slot": "8",
        "type": "t_struct(Counter)1582_storage"
      },
      {
        "astId": 2009,
        "contract": "contracts/NFTTicketMarketplace.sol:NFTTicketMarketplace",
        "label": "_eventIds",
        "offset": 0,
        "slot": "9",
        "type": "t_struct(Counter)1582_storage"
      },
      {
        "astId": 2012,
        "contract": "contracts/NFTTicketMarketplace.sol:NFTTicketMarketplace",
        "label": "_typeTicketIds",
        "offset": 0,
        "slot": "10",
        "type": "t_struct(Counter)1582_storage"
      },
      {
        "astId": 2015,
        "contract": "contracts/NFTTicketMarketplace.sol:NFTTicketMarketplace",
        "label": "_itemsSold",
        "offset": 0,
        "slot": "11",
        "type": "t_struct(Counter)1582_storage"
      },
      {
        "astId": 2018,
        "contract": "contracts/NFTTicketMarketplace.sol:NFTTicketMarketplace",
        "label": "listingPrice",
        "offset": 0,
        "slot": "12",
        "type": "t_uint256"
      },
      {
        "astId": 2023,
        "contract": "contracts/NFTTicketMarketplace.sol:NFTTicketMarketplace",
        "label": "idToMarketItem",
        "offset": 0,
        "slot": "13",
        "type": "t_mapping(t_uint256,t_struct(MarketItem)2048_storage)"
      },
      {
        "astId": 2028,
        "contract": "contracts/NFTTicketMarketplace.sol:NFTTicketMarketplace",
        "label": "idToEvent",
        "offset": 0,
        "slot": "14",
        "type": "t_mapping(t_uint256,t_struct(Event)1936_storage)"
      },
      {
        "astId": 2033,
        "contract": "contracts/NFTTicketMarketplace.sol:NFTTicketMarketplace",
        "label": "idToTicketType",
        "offset": 0,
        "slot": "15",
        "type": "t_mapping(t_uint256,t_struct(TicketType)1977_storage)"
      },
      {
        "astId": 2037,
        "contract": "contracts/NFTTicketMarketplace.sol:NFTTicketMarketplace",
        "label": "idTokenToIdTicketType",
        "offset": 0,
        "slot": "16",
        "type": "t_mapping(t_uint256,t_uint256)"
      }
    ],
    "types": {
      "t_address": {
        "encoding": "inplace",
        "label": "address",
        "numberOfBytes": "20"
      },
      "t_address_payable": {
        "encoding": "inplace",
        "label": "address payable",
        "numberOfBytes": "20"
      },
      "t_bool": {
        "encoding": "inplace",
        "label": "bool",
        "numberOfBytes": "1"
      },
      "t_int256": {
        "encoding": "inplace",
        "label": "int256",
        "numberOfBytes": "32"
      },
      "t_mapping(t_address,t_bool)": {
        "encoding": "mapping",
        "key": "t_address",
        "label": "mapping(address => bool)",
        "numberOfBytes": "32",
        "value": "t_bool"
      },
      "t_mapping(t_address,t_mapping(t_address,t_bool))": {
        "encoding": "mapping",
        "key": "t_address",
        "label": "mapping(address => mapping(address => bool))",
        "numberOfBytes": "32",
        "value": "t_mapping(t_address,t_bool)"
      },
      "t_mapping(t_address,t_uint256)": {
        "encoding": "mapping",
        "key": "t_address",
        "label": "mapping(address => uint256)",
        "numberOfBytes": "32",
        "value": "t_uint256"
      },
      "t_mapping(t_uint256,t_address)": {
        "encoding": "mapping",
        "key": "t_uint256",
        "label": "mapping(uint256 => address)",
        "numberOfBytes": "32",
        "value": "t_address"
      },
      "t_mapping(t_uint256,t_struct(Event)1936_storage)": {
        "encoding": "mapping",
        "key": "t_uint256",
        "label": "mapping(uint256 => struct NFTTicketMarketplace.Event)",
        "numberOfBytes": "32",
        "value": "t_struct(Event)1936_storage"
      },
      "t_mapping(t_uint256,t_struct(MarketItem)2048_storage)": {
        "encoding": "mapping",
        "key": "t_uint256",
        "label": "mapping(uint256 => struct NFTTicketMarketplace.MarketItem)",
        "numberOfBytes": "32",
        "value": "t_struct(MarketItem)2048_storage"
      },
      "t_mapping(t_uint256,t_struct(TicketType)1977_storage)": {
        "encoding": "mapping",
        "key": "t_uint256",
        "label": "mapping(uint256 => struct NFTTicketMarketplace.TicketType)",
        "numberOfBytes": "32",
        "value": "t_struct(TicketType)1977_storage"
      },
      "t_mapping(t_uint256,t_uint256)": {
        "encoding": "mapping",
        "key": "t_uint256",
        "label": "mapping(uint256 => uint256)",
        "numberOfBytes": "32",
        "value": "t_uint256"
      },
      "t_string_storage": {
        "encoding": "bytes",
        "label": "string",
        "numberOfBytes": "32"
      },
      "t_struct(Counter)1582_storage": {
        "encoding": "inplace",
        "label": "struct Counters.Counter",
        "members": [
          {
            "astId": 1581,
            "contract": "contracts/NFTTicketMarketplace.sol:NFTTicketMarketplace",
            "label": "_value",
            "offset": 0,
            "slot": "0",
            "type": "t_uint256"
          }
        ],
        "numberOfBytes": "32"
      },
      "t_struct(Event)1936_storage": {
        "encoding": "inplace",
        "label": "struct NFTTicketMarketplace.Event",
        "members": [
          {
            "astId": 1925,
            "contract": "contracts/NFTTicketMarketplace.sol:NFTTicketMarketplace",
            "label": "owner",
            "offset": 0,
            "slot": "0",
            "type": "t_address"
          },
          {
            "astId": 1927,
            "contract": "contracts/NFTTicketMarketplace.sol:NFTTicketMarketplace",
            "label": "createdTime",
            "offset": 0,
            "slot": "1",
            "type": "t_uint256"
          },
          {
            "astId": 1929,
            "contract": "contracts/NFTTicketMarketplace.sol:NFTTicketMarketplace",
            "label": "startTime",
            "offset": 0,
            "slot": "2",
            "type": "t_uint256"
          },
          {
            "astId": 1931,
            "contract": "contracts/NFTTicketMarketplace.sol:NFTTicketMarketplace",
            "label": "endTime",
            "offset": 0,
            "slot": "3",
            "type": "t_uint256"
          },
          {
            "astId": 1933,
            "contract": "contracts/NFTTicketMarketplace.sol:NFTTicketMarketplace",
            "label": "id",
            "offset": 0,
            "slot": "4",
            "type": "t_string_storage"
          },
          {
            "astId": 1935,
            "contract": "contracts/NFTTicketMarketplace.sol:NFTTicketMarketplace",
            "label": "exist",
            "offset": 0,
            "slot": "5",
            "type": "t_bool"
          }
        ],
        "numberOfBytes": "192"
      },
      "t_struct(MarketItem)2048_storage": {
        "encoding": "inplace",
        "label": "struct NFTTicketMarketplace.MarketItem",
        "members": [
          {
            "astId": 2039,
            "contract": "contracts/NFTTicketMarketplace.sol:NFTTicketMarketplace",
            "label": "tokenId",
            "offset": 0,
            "slot": "0",
            "type": "t_uint256"
          },
          {
            "astId": 2041,
            "contract": "contracts/NFTTicketMarketplace.sol:NFTTicketMarketplace",
            "label": "seller",
            "offset": 0,
            "slot": "1",
            "type": "t_address_payable"
          },
          {
            "astId": 2043,
            "contract": "contracts/NFTTicketMarketplace.sol:NFTTicketMarketplace",
            "label": "owner",
            "offset": 0,
            "slot": "2",
            "type": "t_address_payable"
          },
          {
            "astId": 2045,
            "contract": "contracts/NFTTicketMarketplace.sol:NFTTicketMarketplace",
            "label": "price",
            "offset": 0,
            "slot": "3",
            "type": "t_uint256"
          },
          {
            "astId": 2047,
            "contract": "contracts/NFTTicketMarketplace.sol:NFTTicketMarketplace",
            "label": "sold",
            "offset": 0,
            "slot": "4",
            "type": "t_bool"
          }
        ],
        "numberOfBytes": "160"
      },
      "t_struct(TicketType)1977_storage": {
        "encoding": "inplace",
        "label": "struct NFTTicketMarketplace.TicketType",
        "members": [
          {
            "astId": 1962,
            "contract": "contracts/NFTTicketMarketplace.sol:NFTTicketMarketplace",
            "label": "eventId",
            "offset": 0,
            "slot": "0",
            "type": "t_uint256"
          },
          {
            "astId": 1964,
            "contract": "contracts/NFTTicketMarketplace.sol:NFTTicketMarketplace",
            "label": "createdTime",
            "offset": 0,
            "slot": "1",
            "type": "t_uint256"
          },
          {
            "astId": 1966,
            "contract": "contracts/NFTTicketMarketplace.sol:NFTTicketMarketplace",
            "label": "id",
            "offset": 0,
            "slot": "2",
            "type": "t_string_storage"
          },
          {
            "astId": 1968,
            "contract": "contracts/NFTTicketMarketplace.sol:NFTTicketMarketplace",
            "label": "price",
            "offset": 0,
            "slot": "3",
            "type": "t_uint256"
          },
          {
            "astId": 1970,
            "contract": "contracts/NFTTicketMarketplace.sol:NFTTicketMarketplace",
            "label": "startSellingTime",
            "offset": 0,
            "slot": "4",
            "type": "t_uint256"
          },
          {
            "astId": 1972,
            "contract": "contracts/NFTTicketMarketplace.sol:NFTTicketMarketplace",
            "label": "endSellingTime",
            "offset": 0,
            "slot": "5",
            "type": "t_uint256"
          },
          {
            "astId": 1974,
            "contract": "contracts/NFTTicketMarketplace.sol:NFTTicketMarketplace",
            "label": "limit",
            "offset": 0,
            "slot": "6",
            "type": "t_int256"
          },
          {
            "astId": 1976,
            "contract": "contracts/NFTTicketMarketplace.sol:NFTTicketMarketplace",
            "label": "exist",
            "offset": 0,
            "slot": "7",
            "type": "t_bool"
          }
        ],
        "numberOfBytes": "256"
      },
      "t_uint256": {
        "encoding": "inplace",
        "label": "uint256",
        "numberOfBytes": "32"
      }
    }
  }
}